:1000000000308A0004280000840183131F30830518
:1000100083161F149F141F159F1107309C00831215
:10002000880101308600870183168117FF30860022
:10003000003088008700831287100710831606148B
:100040008312061C282808140815081608172C28DF
:100050000810081108120813831606158312061DCE
:10006000362888148815881688173A288810881129
:1000700088128813831686148312861C40288714DE
:10008000831686158312861D462807141C286300D4
:02400E00323F3F
:00000001FF
;PIC16F877A
