:1000000000308A0004280000840183131F30830518
:1000100083161F149F141F159F1107309C00831215
:1000200088018601870183168117FF308600003022
:100030008800870006148312061C2328081408155C
:100040000816081727280810081108120813831625
:1000500006158312061D31288814881588168817FE
:100060003528881088118812881383168614831205
:10007000861C3C2887143D2887108316861583121A
:10008000861D442807144528071083161A28630084
:02400E00323F3F
:00000001FF
;PIC16F877A
